:020000041000EA
:10000000781D00103501001043010010450100105B
:1000100047010010490100104B01001000000000D2
:100020000000000000000000000000004D01001072
:100030004F01001000000000510100101D020010CF
:100040005101001051010010510100105101001028
:100050005101001051010010510100105101001018
:100060005101001051010010E90100103902001087
:1000700055020010510100105101001051010010F3
:1000800051010010510100105101001051010010E8
:1000900000F002F800F03EF80CA030C80838241830
:1000A0002D18A246671EAB4654465D46AC4201D1B0
:1000B00000F030F87E460F3E0FCCB64601263342A4
:1000C00000D0FB1AA246AB46334318471C0400007D
:1000D0003C040000103A02D378C878C1FAD852071D
:1000E00001D330C830C101D504680C6070470000EE
:1000F0000023002400250026103A01D378C1FBD844
:10010000520700D330C100D50B6070471FB51FBD2B
:1001100010B510BD00F035F81146FFF7F7FF00F0FD
:10012000CFF900F04DF803B4FFF7F2FF03BC00F085
:1001300053F800000A480B4901600B4880470B4800
:100140000047FEE7FEE7FEE7FEE7FEE7FEE7FEE725
:10015000FEE7000006480749054A074B70470000C4
:100160003C010040010000102D0200109100001021
:1001700078150010781D0010781500107047704732
:100180007047754600F024F8AE46050069465346B0
:10019000C008C000854618B020B5FFF7DBFF60BC83
:1001A00000274908B6460026C0C5C0C5C0C5C0C5A1
:1001B000C0C5C0C5C0C5C0C5403D49008D467047DB
:1001C00010B50446C046C0462046FFF7ACFF10BD40
:1001D000004870471815001001491820ABBEFEE713
:1001E00026000200704700000948C06A00280ED0AF
:1001F0000849820500D50A6A420600D54A6909689D
:10020000800604D504480068002800D000477047E5
:100210000060004040600040141500100248006873
:10022000002800D0004770470815001001492D2014
:1002300008627047002400400448806804490007B1
:100240000968000F002900D00847704700000140EE
:100250000C150010074988680007000F042801D01A
:100260000C2806D1086804494968002901D0C0B2A9
:1002700008477047001001400C150010820730B588
:10028000920F80080F290ED8074B8000C3181C68F6
:10029000920001259540AC431C60044BC018036CD0
:1002A00091400B43036430BD0011004080000040CA
:1002B000820710B5920F800813290CD883000648D6
:1002C0001818036CD20003249440A3430364036C06
:1002D00091400B43036410BD80000040020710B53D
:1002E000120F000903290CD8830006481818836AE6
:1002F000520003249440A3438362836A91400B43DA
:10030000836210BD0001004010B5022000F05CF8CF
:1003100010BD000070B50E46154604460021FFF7DB
:10032000DDFF00212046FFF7A9FF00213046FFF73F
:10033000D5FF00213046FFF7A1FF06212046FFF739
:10034000B7FF05213046FFF7B3FF17481549016392
:1003500015490212C0314A60144A4A601449816347
:100360000021084600F036F8124C0021E1621148E5
:10037000403885608163C1630160A9218900016300
:100380000C21C16113210162482141614F2181612A
:100390000021084600F01EF80120E06206498002B4
:1003A000086070BD000800084000004040004000A8
:1003B000110011004060004000E100E001490860C8
:1003C00070470000141500100149086170470000D3
:1003D00000600040044B1A6BD2B2C240D207D20F69
:1003E0008A42F8D17047000040600040F8B50F46DF
:1003F00004461D46164600213846FFF76FFF0021D0
:100400003846FFF73BFF00213046FFF767FF00212A
:100410003046FFF733FF002C02D0012C06D00DE050
:1004200001213846FFF744FF022104E00821384645
:10043000FFF73EFF07213046FFF73AFF2146012034
:10044000103102468A401A494A600346A3401A43C3
:100450004A608A69061B0346B3409A438A61224672
:10046000143201469140221D03469340104A19431D
:10047000C03A1163E30081070E4A59180A632A093A
:100480004A630D49802223035918CA602A07120FB4
:100490000A6000224A600322CA6087228A608122A1
:1004A0004A600B34E106C90E884004490860F8BD73
:1004B00000010040180011000000014000E100E0D0
:1004C000074B032202210120FFF790FF5022042155
:1004D0000520FFF71FFF0348FFF770FFFEE700004E
:1004E00011278004090300100805001008150010EA
:1004F00010000000D400001018050010181500109E
:1005000060080000F0000010000000000000000083
:080510000000000000000000E3
:040000051000009156
:00000001FF
