:020000041000EA
:10000000B0250010590100106701001069010010AF
:100010006B0100106D0100106F0100100000000066
:10002000000000000000000000000000710100104E
:100030007301001000000000750100107501001030
:10004000750100107501001075010010A905001060
:100050007501001075010010750100107501001088
:1000600075010010750100101D0600107D070010BD
:10007000A507001075010010750100107501001032
:100080007501001075010010750100107501001058
:1000900000F002F800F050F80CA030C8083824181E
:1000A0002D18A246671EAB4654465D46AC4201D1B0
:1000B00000F042F87E460F3E0FCCB6460126334292
:1000C00000D0FB1AA246AB4633431847D40B0000BE
:1000D000F40B0000103A02D378C878C1FAD852075E
:1000E00001D330C830C101D504680C6070470000EE
:1000F0000023002400250026103A01D378C1FBD844
:10010000520700D330C100D50B60704710B5642989
:1001100002D100F07FF810BD782902D100F0B0F8CC
:1001200010BD732902D100F091F910BD002010BD5F
:100130001FB51FBD10B510BD00F0CCF91146FFF77B
:10014000F7FF00F0E3FC00F0E4F903B4FFF7F2FF7F
:1001500003BC00F0B2FB00000A480B4901600B48E9
:1001600080470B480047FEE7FEE7FEE7FEE7FEE7B5
:10017000FEE7FEE7FEE7000006480749054A074B91
:10018000704700003C0100400100001069070010AA
:1001900091000010B01D0010B0250010B01D00101F
:1001A000704700000FB4054910B503AA029800F08B
:1001B00051F910BC08BC04B018470000EC1C00103A
:1001C00070B50C460546012A05D02878800600D572
:1001D000EA69002302E0012305E05B1C934202D29E
:1001E000E05C0028F9D1A869E618C01AA861286A5D
:1001F000C01828622846C046C04604E06A682078D5
:10020000A968641C9047B442F8D32846C046C0464B
:1002100070BD0000F7B5002575291068009914A677
:1002200011D0C046C046002802DA404211A608E0BC
:10023000009909688A0701D50FA602E0490704D58D
:100240000EA6012501E0C046C046009F00242437C9
:1002500004E000F013F930313955641C0028F8D15E
:100260002B4632462146009800F085F8FEBD00007E
:10027000000000002D0000002B0000002000000006
:1002800070B504460D4621461068C046C046218818
:10029000090502D50F4A7A4402E00E4A7A440E322A
:1002A00023460021243305E006070009360F965D3A
:1002B0005E54491C0028F7D120780023000705D59B
:1002C000702D03D0002901D002231132204600F006
:1002D00052F870BDCA090000F8B50F460446002068
:1002E00020622046E168884700283CD0252802D0BB
:1002F0006268A16833E000252046E168884720282D
:1003000006460ADB312E08D2184878448019203876
:100310000078002801D00543EEE7A80701D50420A6
:100320008543002E1FD030464138192803D80120BC
:10033000C002054320363A46204625603146FFF785
:10034000E5FE002808D0012804D0FF1DFF08FF00AB
:100350000837C6E73F1DC4E762683046A16890478A
:10036000206A401CBCE7206AF8BD00007E0900003E
:10037000704770477047FFB504460D4681B0243082
:1003800000902168880604D51022E069914321601D
:1003900000E00120A84201DD471B00E0002704988F
:1003A000A1697A191018081AA0612078C00602D431
:1003B0002046C046C046002608E003986268A1684F
:1003C000805D9047206A401C761C2062049886421B
:1003D000F3DB2078C0060AD52046C046C04606E0BA
:1003E0006268A16830209047206A401C206238462D
:1003F0007F1E0028F4DC07E000986268A168405D79
:100400009047206A401C206228466D1E0028F3DCBD
:100410002046C046C0462078000602D5022005B01E
:10042000F0BD0120FBE710B54369002B02D0C046A8
:10043000C04601E0FFF7C4FE012010BD127801465E
:1004400024310A7000224A700122ECE71168002270
:10045000D243E8E7084B70B50D467B4400F027F81F
:100460000446284600F02AFA002802D00020C043A3
:1004700070BD204670BD0000650400000146800884
:10048000081A02091018020A1018020C1018C008E5
:10049000820012185200891A01E0401C0A390A2908
:1004A000FBD2704701694A1C02610878704700B5A9
:1004B0008FB0029100210591054901937944039180
:1004C000114604906846FFF707FF0FB000BD00001B
:1004D000E5FFFFFF754600F025F8AE4605006946CA
:1004E0005346C008C000854618B020B5FFF744FE4B
:1004F00060BC00274908B6460026C0C5C0C5C0C5B7
:10050000C0C5C0C5C0C5C0C5C0C5403D49008D46B9
:10051000704710B50446C046C0462046FFF715FE9A
:1005200010BD000000487047501D001070B5044613
:100530004168002088470F4D014628700EA0FFF744
:1005400031FE616801208847A870616813208847E0
:100550002871616814208847A87161681520884750
:100560002872A0688047A872014609A0FFF71AFE0A
:1005700070BD0000241D001076616C313A202025EA
:10058000642020202020202020202020200A00007D
:1005900076616C323A202025642020202020202003
:1005A00020202020200A000010B50B48046A0A48C9
:1005B0008038046309480168002901D02046884733
:1005C000200EC00702D006A0FFF7ECFD214609A0CF
:1005D000FFF7E8FD10BD000000120040C01C001035
:1005E0004750494F323420696E7465727275707469
:1005F0000A000000696E746572727570743A252382
:10060000780A000010B5044600F020F8024A07CA34
:1006100007C4804710BD0000F81C00100949C86AD3
:10062000084A40321268420705D50A69D2B2012A47
:1006300001D1CC220A61800602D50348807A086184
:100640007047000000600040241D001020481F4932
:100650000163891041631F481D49026880310A60A7
:1006600042684A6082688A60C268CA6002690A6138
:1006700042694A6182698A61C069C8611548144942
:100680000838C03102688A624068C86212480F2187
:1006900003680904114A0B43136043680B4353601A
:1006A00083680B439360C3680B43D36003690B43B8
:1006B000136143690B43536183690B439361C069C1
:1006C0000843D06106490820086070470400040010
:1006D00040000040CC1C0010041D00100011004020
:1006E00000E100E070B503460122103314469C403F
:1006F000194B5C60154685402C435C609C69161A5A
:100700001546B540AC439C61044614341346A340DF
:10071000041D1546A540104C2B43C03C2363C50067
:1007200093070E4CEB181C630C095C630C4B802484
:100730000503EB18DC600907090F196000215960F7
:100740000321D960B72199605A600B30C006C00EF2
:1007500082400448026070BD000100401800110092
:100760000000014000E100E010B500F0DDF90249B1
:100770002D20086210BD0000002400400749886851
:100780000007000F042801D00C2806D1086804498E
:10079000C0B20968002900D0084770470000014036
:1007A000F01C0010074988680007000F042801D0DA
:1007B0000C2806D108680449C0B24968002900D055
:1007C0000847704700100140F01C001010B500F001
:1007D00031F9C007C00F10BD10B50021084600F068
:1007E00039F90021012000F035F90021132000F033
:1007F00031F90021142000F02DF90021152000F01E
:1008000029F90021084600F0E9F80021012000F054
:10081000E5F80021132000F0E1F80021142000F099
:10082000DDF80021152000F0D9F80021084600F07D
:10083000A1F80021012000F09DF80021132000F014
:1008400099F80021142000F095F80021152000F0FF
:1008500091F80221002000F039F80221012000F077
:1008600035F80221132000F031F80221142000F0A5
:100870002DF80221152000F029F810BD70B50020D8
:1008800000F0D8F8C407E40F012000F0D3F8C00747
:10089000850F2543132000F0CDF8C007440F2C43EB
:1008A000142000F0C7F8C007050F2543152000F0FD
:1008B000C1F8C007C00E284370BDFEE70020C0434A
:1008C000704700B500F084F900BD000070B500234A
:1008D000244A064604280DD9441F0A2C0ED8131F9B
:1008E0000B2804D00C2804D00D2805D00DE00D20D5
:1008F00000E00E20134608E00F20FBE70446103C02
:100900000C2C02D830071346000F01241D68012962
:100910001AD000291DD04000214681402A468A4332
:10092000401C8440A2431A603007000F01221204C9
:10093000824031090C4B8900CB181A620B4A824065
:100940000B480818026070BD4000224682402A43CE
:10095000E6E74000214681402246401C8D4382400C
:100960002A43E0E738240040001000400100010065
:100970008011004010B50F2920D88407144A800840
:100980000F238000A40F1B048018002C17D0012C0B
:100990000DD0022C06D0032C10D102681205120DC6
:1009A000090308E002680B4C2240090203E00268D8
:1009B000094C2240090111431943016010BD02682E
:1009C000054CE13422400A431A43026010BD000086
:1009D00000110040FFF000000FFF0000132913D8A2
:1009E0008307134A800880009B0F8018002B0CD0CF
:1009F000012B10D0022B14D0032B05D1026C120254
:100A0000120A0906114301647047026C120A1202AD
:100A10000A4302647047026CFF231B029A430902D7
:100A2000F0E7026CFF231B049A430904EAE7000085
:100A3000800000404109064A89008918096CC206F5
:100A4000D20E01209040084000D0012070470000E5
:100A50000010004010B503290CD802099300064A83
:100A60009B189A6A0007C00E03248440A243814069
:100A70000A439A6210BD000000010040044B1A6B4B
:100A8000D2B2C240D207D20F8A42F8D170470000DA
:100A90004060004070B50546174816490163164985
:100AA0000212C0314A60154A4A601549816300212B
:100AB0000846FFF7E3FF134C0022E2621149403978
:100AC0008D608A63CA630A60A920800008630C20D5
:100AD000C86113200862482048614F2088610021C6
:100AE0000846FFF7CBFF0120E0620749800208605B
:100AF00070BD0000000800084000004040004000B9
:100B0000110011004060004000E100E00548FFF7DF
:100B100079FD00F087F800F067F80248FFF706FD5E
:100B2000FBE70000441D001010B516490869164A7D
:100B300080B2104308611549C86BC007FCD1012180
:100B40001048090440304160491C416008010D49CA
:100B5000803908630E49800601630E4941630B48E2
:100B600080214038C16001210160002141600321E2
:100B7000C1603721816008A20AA10DA0FFF712FB16
:100B800010BD0000C0000040000001024000014014
:100B9000180011007102480031303A34383A3538C3
:100BA00000000000417567203130203230323100C2
:100BB0000A2053595354454D204255494C44205422
:100BC000494D453A202573202573200A0000000076
:100BD000044A2023516919402029FBD110600120CB
:100BE000704700000000014010B500210420FFF70D
:100BF00031FF00210420FFF7BDFE05210420FFF78F
:100C0000EDFE00210520FFF725FF00210520FFF75D
:100C1000B1FE06210520FFF7E1FE5020FFF73AFF65
:100C200010BD000010B500210220FFF713FF0021C6
:100C30000220FFF79FFE01210220FFF7CFFE0021D7
:100C40000320FFF707FF00210320FFF793FE022197
:100C50000320FFF7C3FE02490020FFF743FD10BD4C
:100C60001127800430313233343536373839414238
:100C700043444546403058003031323334353637FE
:100C800038396162636465664030780004000008AA
:100C90000000000000000002000100001000000041
:100CA000C00C0010C01C001044000000D400001054
:100CB000040D0010041D0010AC080000F00000102E
:100CC0000000000000000000000000000000000024
:100CD0000000000000000000000000000000010211
:100CE0000000000000000000000000000000000004
:100CF0000000000000000000D9070010CD07001020
:040D00007D0800105A
:040000051000009156
:00000001FF
